{
  "contractName": "DocumentValidation",
  "abi": [
    {
      "anonymous": false,
      "inputs": [
        {
          "indexed": false,
          "internalType": "string",
          "name": "hash",
          "type": "string"
        },
        {
          "indexed": false,
          "internalType": "string",
          "name": "name",
          "type": "string"
        }
      ],
      "name": "DocumentRegistered",
      "type": "event"
    },
    {
      "inputs": [
        {
          "internalType": "uint256",
          "name": "",
          "type": "uint256"
        }
      ],
      "name": "documentList",
      "outputs": [
        {
          "internalType": "string",
          "name": "name",
          "type": "string"
        },
        {
          "internalType": "string",
          "name": "hash",
          "type": "string"
        }
      ],
      "stateMutability": "view",
      "type": "function",
      "constant": true
    },
    {
      "inputs": [
        {
          "internalType": "string",
          "name": "",
          "type": "string"
        }
      ],
      "name": "documents",
      "outputs": [
        {
          "internalType": "string",
          "name": "name",
          "type": "string"
        },
        {
          "internalType": "string",
          "name": "hash",
          "type": "string"
        }
      ],
      "stateMutability": "view",
      "type": "function",
      "constant": true
    },
    {
      "inputs": [
        {
          "internalType": "string",
          "name": "_hash",
          "type": "string"
        },
        {
          "internalType": "string",
          "name": "_name",
          "type": "string"
        }
      ],
      "name": "registerDocument",
      "outputs": [],
      "stateMutability": "nonpayable",
      "type": "function"
    },
    {
      "inputs": [
        {
          "internalType": "string",
          "name": "_hash",
          "type": "string"
        }
      ],
      "name": "verifyDocument",
      "outputs": [
        {
          "internalType": "bool",
          "name": "",
          "type": "bool"
        }
      ],
      "stateMutability": "view",
      "type": "function",
      "constant": true
    },
    {
      "inputs": [],
      "name": "getDocuments",
      "outputs": [
        {
          "components": [
            {
              "internalType": "string",
              "name": "name",
              "type": "string"
            },
            {
              "internalType": "string",
              "name": "hash",
              "type": "string"
            }
          ],
          "internalType": "struct DocumentValidation.Document[]",
          "name": "",
          "type": "tuple[]"
        }
      ],
      "stateMutability": "view",
      "type": "function",
      "constant": true
    }
  ],
  "bytecode": "0x608060405234801561001057600080fd5b50610f17806100206000396000f3fe608060405234801561001057600080fd5b50600436106100575760003560e01c80631c49ea911461005c5780633140c27d14610078578063b3dd697b146100a9578063beee5eb7146100da578063ef2d87001461010a575b600080fd5b610076600480360381019061007191906109a0565b610128565b005b610092600480360381019061008d9190610a0c565b6102cb565b6040516100a0929190610c88565b60405180910390f35b6100c360048036038101906100be919061095f565b61040f565b6040516100d1929190610c88565b60405180910390f35b6100f460048036038101906100ef919061095f565b610559565b6040516101019190610c6d565b60405180910390f35b6101126106bc565b60405161011f9190610c4b565b60405180910390f35b600081511161016c576040517f08c379a000000000000000000000000000000000000000000000000000000000815260040161016390610cbf565b60405180910390fd5b60008251116101b0576040517f08c379a00000000000000000000000000000000000000000000000000000000081526004016101a790610cdf565b60405180910390fd5b60006040518060400160405280838152602001848152509050806000846040516101da9190610c34565b9081526020016040518091039020600082015181600001908051906020019061020492919061083f565b50602082015181600101908051906020019061022192919061083f565b509050506001819080600181540180825580915050600190039060005260206000209060020201600090919091909150600082015181600001908051906020019061026d92919061083f565b50602082015181600101908051906020019061028a92919061083f565b5050507f635afb93ad16959e4307e78c372e65b16fcb034908ec0174fc35d878a7cef97183836040516102be929190610c88565b60405180910390a1505050565b600181815481106102db57600080fd5b90600052602060002090600202016000915090508060000180546102fe90610e29565b80601f016020809104026020016040519081016040528092919081815260200182805461032a90610e29565b80156103775780601f1061034c57610100808354040283529160200191610377565b820191906000526020600020905b81548152906001019060200180831161035a57829003601f168201915b50505050509080600101805461038c90610e29565b80601f01602080910402602001604051908101604052809291908181526020018280546103b890610e29565b80156104055780601f106103da57610100808354040283529160200191610405565b820191906000526020600020905b8154815290600101906020018083116103e857829003601f168201915b5050505050905082565b60008180516020810182018051848252602083016020850120818352809550505050505060009150905080600001805461044890610e29565b80601f016020809104026020016040519081016040528092919081815260200182805461047490610e29565b80156104c15780601f10610496576101008083540402835291602001916104c1565b820191906000526020600020905b8154815290600101906020018083116104a457829003601f168201915b5050505050908060010180546104d690610e29565b80601f016020809104026020016040519081016040528092919081815260200182805461050290610e29565b801561054f5780601f106105245761010080835404028352916020019161054f565b820191906000526020600020905b81548152906001019060200180831161053257829003601f168201915b5050505050905082565b60008060008360405161056c9190610c34565b908152602001604051809103902060405180604001604052908160008201805461059590610e29565b80601f01602080910402602001604051908101604052809291908181526020018280546105c190610e29565b801561060e5780601f106105e35761010080835404028352916020019161060e565b820191906000526020600020905b8154815290600101906020018083116105f157829003601f168201915b5050505050815260200160018201805461062790610e29565b80601f016020809104026020016040519081016040528092919081815260200182805461065390610e29565b80156106a05780601f10610675576101008083540402835291602001916106a0565b820191906000526020600020905b81548152906001019060200180831161068357829003601f168201915b5050505050815250509050600081600001515111915050919050565b60606001805480602002602001604051908101604052809291908181526020016000905b82821015610836578382906000526020600020906002020160405180604001604052908160008201805461071390610e29565b80601f016020809104026020016040519081016040528092919081815260200182805461073f90610e29565b801561078c5780601f106107615761010080835404028352916020019161078c565b820191906000526020600020905b81548152906001019060200180831161076f57829003601f168201915b505050505081526020016001820180546107a590610e29565b80601f01602080910402602001604051908101604052809291908181526020018280546107d190610e29565b801561081e5780601f106107f35761010080835404028352916020019161081e565b820191906000526020600020905b81548152906001019060200180831161080157829003601f168201915b505050505081525050815260200190600101906106e0565b50505050905090565b82805461084b90610e29565b90600052602060002090601f01602090048101928261086d57600085556108b4565b82601f1061088657805160ff19168380011785556108b4565b828001600101855582156108b4579182015b828111156108b3578251825591602001919060010190610898565b5b5090506108c191906108c5565b5090565b5b808211156108de5760008160009055506001016108c6565b5090565b60006108f56108f084610d30565b610cff565b90508281526020810184848401111561090d57600080fd5b610918848285610de7565b509392505050565b600082601f83011261093157600080fd5b81356109418482602086016108e2565b91505092915050565b60008135905061095981610eca565b92915050565b60006020828403121561097157600080fd5b600082013567ffffffffffffffff81111561098b57600080fd5b61099784828501610920565b91505092915050565b600080604083850312156109b357600080fd5b600083013567ffffffffffffffff8111156109cd57600080fd5b6109d985828601610920565b925050602083013567ffffffffffffffff8111156109f657600080fd5b610a0285828601610920565b9150509250929050565b600060208284031215610a1e57600080fd5b6000610a2c8482850161094a565b91505092915050565b6000610a418383610bf0565b905092915050565b6000610a5482610d70565b610a5e8185610d93565b935083602082028501610a7085610d60565b8060005b85811015610aac5784840389528151610a8d8582610a35565b9450610a9883610d86565b925060208a01995050600181019050610a74565b50829750879550505050505092915050565b610ac781610dd1565b82525050565b6000610ad882610d7b565b610ae28185610da4565b9350610af2818560208601610df6565b610afb81610eb9565b840191505092915050565b6000610b1182610d7b565b610b1b8185610db5565b9350610b2b818560208601610df6565b610b3481610eb9565b840191505092915050565b6000610b4a82610d7b565b610b548185610dc6565b9350610b64818560208601610df6565b80840191505092915050565b6000610b7d601f83610db5565b91507f4e6f6d6520646f20646f63756d656e746f2065206f6272696761746f72696f006000830152602082019050919050565b6000610bbd601f83610db5565b91507f4861736820646f20646f63756d656e746f2065206f6272696761746f72696f006000830152602082019050919050565b60006040830160008301518482036000860152610c0d8282610acd565b91505060208301518482036020860152610c278282610acd565b9150508091505092915050565b6000610c408284610b3f565b915081905092915050565b60006020820190508181036000830152610c658184610a49565b905092915050565b6000602082019050610c826000830184610abe565b92915050565b60006040820190508181036000830152610ca28185610b06565b90508181036020830152610cb68184610b06565b90509392505050565b60006020820190508181036000830152610cd881610b70565b9050919050565b60006020820190508181036000830152610cf881610bb0565b9050919050565b6000604051905081810181811067ffffffffffffffff82111715610d2657610d25610e8a565b5b8060405250919050565b600067ffffffffffffffff821115610d4b57610d4a610e8a565b5b601f19601f8301169050602081019050919050565b6000819050602082019050919050565b600081519050919050565b600081519050919050565b6000602082019050919050565b600082825260208201905092915050565b600082825260208201905092915050565b600082825260208201905092915050565b600081905092915050565b60008115159050919050565b6000819050919050565b82818337600083830152505050565b60005b83811015610e14578082015181840152602081019050610df9565b83811115610e23576000848401525b50505050565b60006002820490506001821680610e4157607f821691505b60208210811415610e5557610e54610e5b565b5b50919050565b7f4e487b7100000000000000000000000000000000000000000000000000000000600052602260045260246000fd5b7f4e487b7100000000000000000000000000000000000000000000000000000000600052604160045260246000fd5b6000601f19601f8301169050919050565b610ed381610ddd565b8114610ede57600080fd5b5056fea264697066735822122089f0b52209b74e1851be17620a1c103c6824eac425f0cde36bf20b77b5e904ea64736f6c63430008000033",
  "immutableReferences": {},
  "source": "pragma solidity ^0.8.0;\r\n\r\ncontract DocumentValidation {\r\n    struct Document {\r\n        string name;\r\n        string hash;\r\n    }\r\n\r\n    // Mapeia o hash do documento para o nome\r\n    mapping(string => Document) public documents;\r\n\r\n    // Array para armazenar todos os documentos registrados\r\n    Document[] public documentList;\r\n\r\n    // Evento para documentar quando um novo documento e registrado\r\n    event DocumentRegistered(string hash, string name);\r\n\r\n    // Funo para registrar um documento\r\n    function registerDocument(string memory _hash, string memory _name) public {\r\n        require(bytes(_name).length > 0, \"Nome do documento e obrigatorio\");\r\n        require(bytes(_hash).length > 0, \"Hash do documento e obrigatorio\");\r\n\r\n        Document memory newDocument = Document(_name, _hash);\r\n        documents[_hash] = newDocument;\r\n        documentList.push(newDocument);\r\n\r\n        emit DocumentRegistered(_hash, _name);\r\n    }\r\n\r\n    // Funo para verificar um documento registrado\r\n    function verifyDocument(string memory _hash) public view returns (bool) {\r\n        Document memory doc = documents[_hash];\r\n        return bytes(doc.name).length > 0;\r\n    }\r\n\r\n    // Funo para retornar todos os documentos registrados\r\n    function getDocuments() public view returns (Document[] memory) {\r\n        return documentList;\r\n    }\r\n}\r\n",
  "sourcePath": "C:\\Users\\Lucas\\Desktop\\trabfinal\\document-validation\\contracts\\documentValidation.sol",
  "compiler": {
    "name": "solc",
    "version": "0.8.0+commit.c7dfd78e.Emscripten.clang"
  },
  "schemaVersion": "3.4.16",
  "updatedAt": "2024-11-10T20:42:31.682Z",
  "networkType": "ethereum",
  "devdoc": {
    "kind": "dev",
    "methods": {},
    "version": 1
  },
  "userdoc": {
    "kind": "user",
    "methods": {},
    "version": 1
  }
}